{
  "contractName": "DaiFaucet",
  "abi": [
    {
      "constant": false,
      "inputs": [],
      "name": "requestDai",
      "outputs": [],
      "payable": false,
      "stateMutability": "nonpayable",
      "type": "function"
    }
  ],
  "bytecode": "0x6080604052736b175474e89094c44da98b954eedeac495271d0f6000806101000a81548173ffffffffffffffffffffffffffffffffffffffff021916908373ffffffffffffffffffffffffffffffffffffffff16021790555034801561006457600080fd5b5061015d806100746000396000f3fe608060405234801561001057600080fd5b506004361061002b5760003560e01c8063b5589a7314610030575b600080fd5b61003861003a565b005b6000809054906101000a900473ffffffffffffffffffffffffffffffffffffffff1673ffffffffffffffffffffffffffffffffffffffff1663a9059cbb33670de0b6b3a76400006040518363ffffffff1660e01b8152600401808373ffffffffffffffffffffffffffffffffffffffff1673ffffffffffffffffffffffffffffffffffffffff16815260200182815260200192505050602060405180830381600087803b1580156100ea57600080fd5b505af11580156100fe573d6000803e3d6000fd5b505050506040513d602081101561011457600080fd5b81019080805190602001909291905050505056fea265627a7a7231582031909cbc59933e6234cf873c78727b94c409495be801f7898f73ccdfbc30aa4f64736f6c63430005100032",
  "source": "pragma solidity ^0.5.0;\n\n// Only functions you need\ninterface DaiToken {\n    function transfer(address to, uint amount) external returns (bool);\n}\n\ncontract DaiFaucet {\n    DaiToken daiToken = DaiToken(0x6B175474E89094C44Da98b954EedeAC495271d0F);\n\n    function requestDai() public {\n        daiToken.transfer(msg.sender, 1000000000000000000);\n    }\n}\n",
  "sourcePath": "/Users/darren/Documents/project/sol/starter_kit/src/contracts/DaiFaucet.sol",
  "compiler": {
    "name": "solc",
    "version": "0.5.16+commit.9c3226ce.Emscripten.clang"
  },
  "schemaVersion": "3.4.5",
  "updatedAt": "2022-04-23T08:04:43.253Z",
  "networkType": "ethereum",
  "devdoc": {
    "methods": {}
  },
  "userdoc": {
    "methods": {}
  }
}